:0300000002111FCB
:0C111F00787FE4F6D8FD75815F020800BF
:07113F00AE071FEE70FA225B
:10109F00AD07AF051DEF600C7FF512113F7FF51205
:0510AF00113F80EE225C
:0910F0007F051210F9D2A17F0561
:0710F900AE071FEE70FA22A2
:0F111000D2A01210F5C2A07F051210F9C2A122C1
:0610DE00120FFD12104785
:0C10E400C2A01210F5D2A07F050210F986
:1010B400EF6004C2A08002D2A01210F0C2A1D2A09C
:0510C4007F050210F998
:08103F001211107FA0120FFD39
:10104700D2A01210F030A007C2A11210E4C322C22E
:03105700A1D32200
:020FFD00AD073E
:100FFF00E4FCED30E704D2A08002C2A07F051210FE
:10100F00F9D2A1ED25E0FD7F051210F9C2A10CBCAC
:02101F0008E0E7
:0110210022AC
:10102200E4FC1210F5ED25E0FD30A003430501C2FA
:0C103200A17F051210F90CBC08E8AF0506
:01103E00228F
:080F2F008F568B578A5889592F
:100F3700E4F55BE55BC3955A502E12103FAF56128E
:100F47000FFD121047AB57AA58A959120AFCFF12F6
:100F570010DE7F0112109F74012559F559E43558A9
:090F6700F5580556055B80CBD35B
:010F7000225E
:020E96008F5675
:100E980012103FAF56120FFD1210471211107FA10A
:100EA800120FFD121047E4F55BE55A14FFE55BC32A
:100EB8009F5017121022EF120B157F011210B474F5
:100EC8000129F9E43AFA055B80DF121022EF120BD0
:0A0ED80015E4FF1210B41210E4D369
:010EE20022ED
:020FAA00AB0793
:100FAC001211107F90120FFD121047AF031210DEBA
:100FBC001211107F91120FFD121047121022AD0763
:0A0FCC00E4FF1210B41210E4AF05A8
:010FD60022F8
:100F7100EF603224FB601314601914601F240370A6
:100F810027E5A0541F4480F5A022E5A0541F44A0EA
:100F9100F5A022E5A0541F44C0F5A022E5A0541FEE
:090FA10044E0F5A02253A01F2238
:10105A00C0F9A4B0999282F88090FFBF7F00898678
:09106A00880102040810204080F6
:10107300E55ED394074003E4F55E7436255EF8E637
:06108300755C00F55D2222
:100EE300121073E55E90106B93F580E5A0541F44D8
:100EF300C0F5A053A01FE55F6014745A255DF58209
:100F03007410355CF583E493547FF5808010745A34
:100F1300255DF5827410355CF583E493F580E5A0D7
:0C0F2300541F44E0F5A053A01F055E22FF
:0C112B00323032312D30382D30322000AF
:100DD60030900BE4F51AF51BF518F5198022E51984
:100DE6004518701C051BE51B7002051A6402451A9E
:100DF600700EF51AF51BF518751901F52475250100
:100E060030910BE4F516F517F514F5158022E51566
:100E16004514701C0517E517700205166402451681
:100E2600700EF516F517F514751501F524752502DE
:100E360030920BE4F512F513F510F5118022E51149
:100E46004510701C0513E513700205126402451265
:100E5600700EF512F513F510751101F524752503BD
:100E660030930AE4F50EF50FF50CF50D22E50D4568
:100E76000C701C050FE50F7002050E6402450E701E
:100E86000EF50EF50FF50C750D01F52475250422EA
:10110000438901758CEC758A77D2A9D2AFD28C2233
:1010C900759850438920E4F587758DFD758BFD75FD
:0510D900B801D28E22D7
:100FD7007580FF753000753101E4F532F533F52082
:100FE70075210CF552F553F54DF54EF529F52AF512
:060FF70022F523F52F2274
:081137008F993099FDC2992245
:10108900120AFC6010F5993099FDC299740129F989
:06109900E43AFA80EB22AC
:10080000120FD71210C9121100752F04120DD6D372
:10081000E51D9464E51C9400405AE4F51CF51DFFA9
:10082000120FAA754F008F50AE4F7C007D96120CB0
:100830004AE47BFFFAF9F8120BB88E548F55C3E5E2
:1008400055943CE5549400400BD3E5559464E5542D
:1008500094004020750900750A0185212B85532CD1
:10086000854E2D85552E7B007A00792B755A047F95
:1008700010120F2FE525640145247015F524F52588
:10088000E52F64046005752F048006120FD7E4F588
:100890002FE52FB40420E4F530F53175360A7537AD
:1008A0000A75380A75390A753A0A753B0A753C0AA1
:1008B000753D0A0209ACE52F705FE5256402452409
:1008C0007009F55EF524F525752F01AE20AF217C6A
:1008D000007D0A120B278F36AE20AF217C007D0AE7
:1008E000120B278D3775380BAE52AF537C007D0A43
:1008F000120B278F39AE52AF537C007D0A120B27A3
:100900008D3A753B0BAE4DAF4E7C007D0A120B2726
:100910008F3CAE4DAF4E0209A3E52F640160030288
:1009200009ACC3E555943CE5549400400BD3E55520
:100930009464E55494004008753200753301800DCD
:10094000E4F529F52AF522F523F532F533E525649A
:100950000245247014F55EF524F525F529F52AF5F0
:1009600022F523F532F533F52F75360E75370F75F1
:10097000381075390B753A0BAE54AF557C007D6459
:10098000120B278F3BAE54AF557C007D64120B27B2
:100990007E007F0ACFCDCFCECCCE120B278F3CAEC0
:1009A00054AF557C007D0A120B278D3DE52564036D
:1009B00045246003020A7BE52F64047003020A7B6E
:1009C000E4F524F525E50A640145096003020A7B84
:1009D000FB7A00792B755A047F10120E967BFF7AF2
:1009E00011792B121089E52B75F00A842430F53E1D
:1009F000E52B75F00A84E5F02430F53F75403AE5C3
:100A00002C75F00A842430F541E52C75F00A84E554
:100A1000F02430F54275433AE52D75F00A84243010
:100A2000F544E52D75F00A84E5F02430F54575466A
:100A300020E52ED394784005754748800AE52EC3FB
:100A4000943C500375474CE52E75F064842430F5D2
:100A500048E52E75F06484E5F075F00A842430F5DD
:100A600049E52E75F00A84E5F02430F54A754B0D02
:100A7000E4F54CFB7A00793E121089E525640445C3
:100A8000247024F524F525E52F6405600E752F05E7
:100A9000E4F526F508F551F50B800CE50B700575AE
:100AA0000B018003E4F50BE52F6405600302080CDD
:100AB000E525640245247008F524F525F52FF50B8E
:100AC000E52675F00A84F536E52675F00A8485F08A
:100AD0003775380BE50875F00A84F539E50875F0C7
:100AE0000A8485F03A753B0BE55175F00A84F53CB4
:0C0AF000E55175F00A8485F03D02080C09
:03000B00020C776D
:100C7700C0E0C0F0C083C082C0D075D000C000C043
:100C870001C002C003C004C005C006C007758CECD4
:100C9700758A77051FE51F7002051E051DE51D7086
:100CA70002051CC3E51F94C8E51E94004048751E45
:100CB70000751F00054EE54E7002054D943CE54D4D
:100CC70094004032754D00754E000553E553700290
:100CD7000552943CE5529400401C75520075530030
:100CE7000521E521700205209418E52094004006AF
:100CF700752000752100E50B640170380535E53571
:100D070070020534C394C8E5349400402775340055
:100D17007535000551E551943C401975510005089A
:100D2700E508943C400E7508000526E52694184012
:100D370003752600120EE3E5A0541F44A0F5A05347
:100D4700A01FE5336401453270530523E523700284
:100D57000522C39464E5229400401D752200752383
:100D670000052AE52A70020529D39402E529940093
:100D77004006752900752A00E52A45297005758002
:100D8700FC801DE52A6401452970057580FA8010ED
:100D9700E52A6402452970087580F680037580FE90
:100DA700E531453070037580FFE5A0541F4480F599
:100DB700A053A01FD007D006D005D004D003D0027F
:0F0DC700D001D000D0D0D082D083D0F0D0E03295
:100AFC00BB010689828A83E0225002E722BBFE02F8
:090B0C00E32289828A83E493222A
:100B1500BB010689828A83F0225002F722BBFE01BF
:020B2500F322B9
:100B2700BC000BBE0029EF8DF084FFADF022E4CCB2
:100B3700F875F008EF2FFFEE33FEEC33FCEE9DEC7B
:100B4700984005FCEE9DFE0FD5F0E9E4CEFD22EDC1
:100B5700F8F5F0EE8420D21CFEADF075F008EF2F0B
:100B6700FFED33FD4007985006D5F0F222C398FDFC
:050B77000FD5F0EA2299
:100B7C0075F008758200EF2FFFEE33FECD33CDCC30
:100B8C0033CCC58233C5829BED9AEC99E5829840B3
:100B9C000CF582EE9BFEED9AFDEC99FC0FD5F0D690
:100BAC00E4CEFBE4CDFAE4CCF9A88222B800C1B9BA
:100BBC000059BA002DEC8BF084CFCECDFCE5F0CBF8
:100BCC00F97818EF2FFFEE33FEED33FDEC33FCEB31
:100BDC0033FB10D703994004EB99FB0FD8E5E4F9EC
:100BEC00FA227818EF2FFFEE33FEED33FDEC33FCD9
:100BFC00C933C910D7059BE99A4007EC9BFCE99ACD
:100C0C00F90FD8E0E4C9FAE4CCFB2275F010EF2F11
:100C1C00FFEE33FEED33FDCC33CCC833C810D70711
:100C2C009BEC9AE899400AED9BFDEC9AFCE899F84C
:0E0C3C000FD5F0DAE4CDFBE4CCFAE4C8F922DF
:100C4A00EC8EF0A4CCC5F0CCCDF8EFA4CEC5F02D37
:100C5A00FDE43CFCE8A42EC8C5F03DFDE43CFCEFF5
:0D0C6A00A4FFE5F028FEE43DFDE43CFC2283
:00000001FF
